{
  "contractName": "Supplychain",
  "abi": [
    {
      "anonymous": false,
      "inputs": [
        {
          "indexed": false,
          "internalType": "uint256",
          "name": "id",
          "type": "uint256"
        }
      ],
      "name": "TotalItem",
      "type": "event"
    },
    {
      "constant": true,
      "inputs": [],
      "name": "items",
      "outputs": [
        {
          "internalType": "uint256",
          "name": "",
          "type": "uint256"
        }
      ],
      "payable": false,
      "stateMutability": "view",
      "type": "function"
    },
    {
      "constant": false,
      "inputs": [],
      "name": "get",
      "outputs": [
        {
          "internalType": "uint256",
          "name": "",
          "type": "uint256"
        }
      ],
      "payable": false,
      "stateMutability": "nonpayable",
      "type": "function"
    },
    {
      "constant": false,
      "inputs": [
        {
          "internalType": "string",
          "name": "_a",
          "type": "string"
        },
        {
          "internalType": "string",
          "name": "_b",
          "type": "string"
        }
      ],
      "name": "concat",
      "outputs": [
        {
          "internalType": "string",
          "name": "",
          "type": "string"
        }
      ],
      "payable": false,
      "stateMutability": "nonpayable",
      "type": "function"
    },
    {
      "constant": false,
      "inputs": [
        {
          "internalType": "string",
          "name": "prodName",
          "type": "string"
        },
        {
          "internalType": "string",
          "name": "author",
          "type": "string"
        },
        {
          "internalType": "string",
          "name": "prodDesc",
          "type": "string"
        },
        {
          "internalType": "string",
          "name": "_date",
          "type": "string"
        }
      ],
      "name": "addItem",
      "outputs": [
        {
          "internalType": "bool",
          "name": "",
          "type": "bool"
        }
      ],
      "payable": false,
      "stateMutability": "nonpayable",
      "type": "function"
    },
    {
      "constant": false,
      "inputs": [
        {
          "internalType": "uint256",
          "name": "prodId",
          "type": "uint256"
        },
        {
          "internalType": "string",
          "name": "info",
          "type": "string"
        },
        {
          "internalType": "string",
          "name": "author",
          "type": "string"
        }
      ],
      "name": "addState",
      "outputs": [
        {
          "internalType": "string",
          "name": "",
          "type": "string"
        }
      ],
      "payable": false,
      "stateMutability": "nonpayable",
      "type": "function"
    },
    {
      "constant": false,
      "inputs": [
        {
          "internalType": "uint256",
          "name": "prodId",
          "type": "uint256"
        }
      ],
      "name": "searchProduct",
      "outputs": [
        {
          "internalType": "string",
          "name": "",
          "type": "string"
        }
      ],
      "payable": false,
      "stateMutability": "nonpayable",
      "type": "function"
    }
  ],
  "bytecode": "0x6080604052600060015534801561001557600080fd5b506112dc806100256000396000f3fe608060405234801561001057600080fd5b50600436106100625760003560e01c80633cde01b5146100675780636d4ce63c1461010e57806389c19ddb1461012c578063a4f80e19146102f7578063c06fad06146104cc578063ff124319146104ea575b600080fd5b6100936004803603602081101561007d57600080fd5b8101908080359060200190929190505050610782565b6040518080602001828103825283818151815260200191508051906020019080838360005b838110156100d35780820151818401526020810190506100b8565b50505050905090810190601f1680156101005780820380516001836020036101000a031916815260200191505b509250505060405180910390f35b610116610d46565b6040518082815260200191505060405180910390f35b61027c6004803603604081101561014257600080fd5b810190808035906020019064010000000081111561015f57600080fd5b82018360208201111561017157600080fd5b8035906020019184600183028401116401000000008311171561019357600080fd5b91908080601f016020809104026020016040519081016040528093929190818152602001838380828437600081840152601f19601f820116905080830192505050505050509192919290803590602001906401000000008111156101f657600080fd5b82018360208201111561020857600080fd5b8035906020019184600183028401116401000000008311171561022a57600080fd5b91908080601f016020809104026020016040519081016040528093929190818152602001838380828437600081840152601f19601f820116905080830192505050505050509192919290505050610d50565b6040518080602001828103825283818151815260200191508051906020019080838360005b838110156102bc5780820151818401526020810190506102a1565b50505050905090810190601f1680156102e95780820380516001836020036101000a031916815260200191505b509250505060405180910390f35b6104516004803603606081101561030d57600080fd5b81019080803590602001909291908035906020019064010000000081111561033457600080fd5b82018360208201111561034657600080fd5b8035906020019184600183028401116401000000008311171561036857600080fd5b91908080601f016020809104026020016040519081016040528093929190818152602001838380828437600081840152601f19601f820116905080830192505050505050509192919290803590602001906401000000008111156103cb57600080fd5b8201836020820111156103dd57600080fd5b803590602001918460018302840111640100000000831117156103ff57600080fd5b91908080601f016020809104026020016040519081016040528093929190818152602001838380828437600081840152601f19601f820116905080830192505050505050509192919290505050610e99565b6040518080602001828103825283818151815260200191508051906020019080838360005b83811015610491578082015181840152602081019050610476565b50505050905090810190601f1680156104be5780820380516001836020036101000a031916815260200191505b509250505060405180910390f35b6104d4610f7f565b6040518082815260200191505060405180910390f35b6107686004803603608081101561050057600080fd5b810190808035906020019064010000000081111561051d57600080fd5b82018360208201111561052f57600080fd5b8035906020019184600183028401116401000000008311171561055157600080fd5b91908080601f016020809104026020016040519081016040528093929190818152602001838380828437600081840152601f19601f820116905080830192505050505050509192919290803590602001906401000000008111156105b457600080fd5b8201836020820111156105c657600080fd5b803590602001918460018302840111640100000000831117156105e857600080fd5b91908080601f016020809104026020016040519081016040528093929190818152602001838380828437600081840152601f19601f8201169050808301925050505050505091929192908035906020019064010000000081111561064b57600080fd5b82018360208201111561065d57600080fd5b8035906020019184600183028401116401000000008311171561067f57600080fd5b91908080601f016020809104026020016040519081016040528093929190818152602001838380828437600081840152601f19601f820116905080830192505050505050509192919290803590602001906401000000008111156106e257600080fd5b8201836020820111156106f457600080fd5b8035906020019184600183028401116401000000008311171561071657600080fd5b91908080601f016020809104026020016040519081016040528093929190818152602001838380828437600081840152601f19601f820116905080830192505050505050509192919290505050610f85565b604051808215151515815260200191505060405180910390f35b606060015482111561079357600080fd5b606060405180602001604052806000815250905060606107b284611079565b90506107be8282610d50565b91506107ff826040518060400160405280600181526020017f2f00000000000000000000000000000000000000000000000000000000000000815250610d50565b91506108b8826000808781526020019081526020016000206001018054600181600116156101000203166002900480601f0160208091040260200160405190810160405280929190818152602001828054600181600116156101000203166002900480156108ae5780601f10610883576101008083540402835291602001916108ae565b820191906000526020600020905b81548152906001019060200180831161089157829003601f168201915b5050505050610d50565b91506108f9826040518060400160405280600181526020017f2f00000000000000000000000000000000000000000000000000000000000000815250610d50565b91506109b2826000808781526020019081526020016000206002018054600181600116156101000203166002900480601f0160208091040260200160405190810160405280929190818152602001828054600181600116156101000203166002900480156109a85780601f1061097d576101008083540402835291602001916109a8565b820191906000526020600020905b81548152906001019060200180831161098b57829003601f168201915b5050505050610d50565b91506109f3826040518060400160405280600181526020017f2f00000000000000000000000000000000000000000000000000000000000000815250610d50565b9150610aac826000808781526020019081526020016000206004018054600181600116156101000203166002900480601f016020809104026020016040519081016040528092919081815260200182805460018160011615610100020316600290048015610aa25780601f10610a7757610100808354040283529160200191610aa2565b820191906000526020600020905b815481529060010190602001808311610a8557829003601f168201915b5050505050610d50565b9150610aed826040518060400160405280600181526020017f2f00000000000000000000000000000000000000000000000000000000000000815250610d50565b915060008090505b60008086815260200190815260200160002060050154811015610d3b57610bdd8360008088815260200190815260200160002060060160008481526020019081526020016000206001018054600181600116156101000203166002900480601f016020809104026020016040519081016040528092919081815260200182805460018160011615610100020316600290048015610bd35780601f10610ba857610100808354040283529160200191610bd3565b820191906000526020600020905b815481529060010190602001808311610bb657829003601f168201915b5050505050610d50565b9250610c1e836040518060400160405280600181526020017f2a00000000000000000000000000000000000000000000000000000000000000815250610d50565b9250610ceb8360008088815260200190815260200160002060060160008481526020019081526020016000206000018054600181600116156101000203166002900480601f016020809104026020016040519081016040528092919081815260200182805460018160011615610100020316600290048015610ce15780601f10610cb657610100808354040283529160200191610ce1565b820191906000526020600020905b815481529060010190602001808311610cc457829003601f168201915b5050505050610d50565b9250610d2c836040518060400160405280600181526020017f2400000000000000000000000000000000000000000000000000000000000000815250610d50565b92508080600101915050610af5565b508192505050919050565b6000600154905090565b6060808390506060839050606081518351016040519080825280601f01601f191660200182016040528015610d945781602001600182028038833980820191505090505b5090506060819050600080905060008090505b8551811015610e1557858181518110610dbc57fe5b602001015160f81c60f81b838380600101945081518110610dd957fe5b60200101907effffffffffffffffffffffffffffffffffffffffffffffffffffffffffffff1916908160001a9053508080600101915050610da7565b5060008090505b8451811015610e8a57848181518110610e3157fe5b602001015160f81c60f81b838380600101945081518110610e4e57fe5b60200101907effffffffffffffffffffffffffffffffffffffffffffffffffffffffffffff1916908160001a9053508080600101915050610e1c565b50819550505050505092915050565b6060600154841115610eaa57600080fd5b610eb26111b2565b60405180604001604052808581526020018481525090508060008087815260200190815260200160002060060160008060008981526020019081526020016000206005015481526020019081526020016000206000820151816000019080519060200190610f219291906111cc565b506020820151816001019080519060200190610f3e9291906111cc565b509050506001600080878152602001908152602001600020600501540160008087815260200190815260200160002060050181905550839150509392505050565b60015481565b6000610f8f61124c565b6040518060c001604052808681526020018781526020018581526020016001548152602001848152602001600081525090508060008060015481526020019081526020016000206000820151816000019080519060200190610ff29291906111cc565b50602082015181600101908051906020019061100f9291906111cc565b50604082015181600201908051906020019061102c9291906111cc565b506060820151816003015560808201518160040190805190602001906110539291906111cc565b5060a0820151816005015590505060018054016001819055506001915050949350505050565b606060008214156110c1576040518060400160405280600181526020017f300000000000000000000000000000000000000000000000000000000000000081525090506111ad565b600082905060005b600082146110eb578080600101915050600a82816110e357fe5b0491506110c9565b6060816040519080825280601f01601f1916602001820160405280156111205781602001600182028038833980820191505090505b50905060008290505b600086146111a5576001810390506000600a80888161114457fe5b04028703603001905060008160f81b90508084848151811061116257fe5b60200101907effffffffffffffffffffffffffffffffffffffffffffffffffffffffffffff1916908160001a905350600a888161119b57fe5b0497505050611129565b819450505050505b919050565b604051806040016040528060608152602001606081525090565b828054600181600116156101000203166002900490600052602060002090601f016020900481019282601f1061120d57805160ff191683800117855561123b565b8280016001018555821561123b579182015b8281111561123a57825182559160200191906001019061121f565b5b5090506112489190611282565b5090565b6040518060c001604052806060815260200160608152602001606081526020016000815260200160608152602001600081525090565b6112a491905b808211156112a0576000816000905550600101611288565b5090565b9056fea265627a7a7231582083ac94263e9e6c4e1ae4cd80350174dccbf6670ef122d5ea632b5cc533f2137e64736f6c63430005100032",
  "source": "pragma solidity ^0.5.0;\r\n\r\ncontract Supplychain{\r\n\r\n\tevent TotalItem(uint id);\r\n\r\n\tstruct State{\r\n\t\tstring description;\r\n\t\tstring person;\r\n\t}\r\n\r\n\tstruct Product{\r\n\t\tstring creator;\r\n\t\tstring name;\r\n\t\tstring desc;\r\n\t\tuint256 id;\r\n\t\tstring date;\r\n\t\tuint256 totalStates;\r\n\t\tmapping(uint256 => State) states;\r\n\t}\r\n\r\n\tmapping(uint256 => Product) allProducts;\r\n\r\n\tuint256 public items=0;\r\n\r\n\tfunction get() public  returns (uint256){\r\n\t\t// emit TotalItem(items);\r\n\t\treturn items;\r\n\t}\r\n\r\n\tfunction concat(string memory _a, string memory _b) public returns (string memory){\r\n        bytes memory bytes_a = bytes(_a);\r\n        bytes memory bytes_b = bytes(_b);\r\n        string memory length_ab = new string(bytes_a.length + bytes_b.length);\r\n        bytes memory bytes_c = bytes(length_ab);\r\n        uint k = 0;\r\n        for (uint i = 0; i < bytes_a.length; i++) bytes_c[k++] = bytes_a[i];\r\n        for (uint i = 0; i < bytes_b.length; i++) bytes_c[k++] = bytes_b[i];\r\n        return string(bytes_c);\r\n    }\r\n\r\n\r\n\r\n    function addItem(string memory prodName,string memory author,string memory prodDesc,string memory _date) public returns (bool){\r\n    \tProduct memory newItem = Product({\r\n    \t\t\tcreator:author,\r\n    \t\t\tname:prodName,\r\n    \t\t\tdesc:prodDesc,\r\n    \t\t\tid:items,\r\n    \t\t\tdate:_date,\r\n    \t\t\ttotalStates:0\r\n    \t\t});\r\n\r\n    \tallProducts[items] = newItem;\r\n    \titems = items+1;\r\n    \treturn true;\r\n\r\n    }\r\n\r\n\r\n    function addState(uint prodId,string memory info,string memory author) public returns (string memory){\r\n    \trequire(prodId<=items);\r\n\r\n\r\n    \tState memory newState = State({person:author,description:info});\r\n    \tallProducts[prodId].states[allProducts[prodId].totalStates]  = newState;\r\n    \tallProducts[prodId].totalStates = allProducts[prodId].totalStates+1;\r\n\r\n    \treturn info;\r\n\r\n    }\r\n\r\n\r\n\r\n\r\n\r\n\r\n    function uint2str(uint _i) internal pure returns (string memory _uintAsString) {\r\n        if (_i == 0) {\r\n            return \"0\";\r\n        }\r\n        uint j = _i;\r\n        uint len;\r\n        while (j != 0) {\r\n            len++;\r\n            j /= 10;\r\n        }\r\n        bytes memory bstr = new bytes(len);\r\n        uint k = len;\r\n        while (_i != 0) {\r\n            k = k-1;\r\n            uint8 temp = (48 + uint8(_i - _i / 10 * 10));\r\n            bytes1 b1 = bytes1(temp);\r\n            bstr[k] = b1;\r\n            _i /= 10;\r\n        }\r\n        return string(bstr);\r\n    }\r\n\r\n\r\n\r\n\r\n\r\n\r\n\r\n\r\n    function searchProduct(uint prodId) public returns (string memory){\r\n\r\n    \trequire(prodId<=items);\r\n\r\n\r\n    \tstring memory  output = \"\";\r\n    \tstring memory strid = uint2str(prodId);\r\n\r\n    \toutput=concat(output,strid);\r\n    \toutput=concat(output,\"/\");\r\n    \toutput=concat(output,allProducts[prodId].name);\r\n    \toutput=concat(output,\"/\");\r\n    \toutput=concat(output,allProducts[prodId].desc);\r\n    \toutput=concat(output,\"/\");\r\n    \toutput=concat(output,allProducts[prodId].date);\r\n    \toutput=concat(output,\"/\");\r\n\r\n    \tfor(uint256 j=0;j<allProducts[prodId].totalStates;j++){\r\n    \t\toutput = concat(output,allProducts[prodId].states[j].person);\r\n    \t\toutput = concat(output,\"*\");\r\n    \t\toutput = concat(output,allProducts[prodId].states[j].description);\r\n    \t\toutput = concat(output,\"$\");\r\n\r\n    \t}\r\n    \treturn output;\r\n\r\n\r\n    }\r\n\r\n}",
  "sourcePath": "C:/xampp/htdocs/OurProjectCopy/contracts/Supplychain.sol",
  "compiler": {
    "name": "solc",
    "version": "0.5.16+commit.9c3226ce.Emscripten.clang"
  },
  "schemaVersion": "3.4.1",
  "updatedAt": "2021-06-23T17:48:03.673Z",
  "networkType": "ethereum",
  "devdoc": {
    "methods": {}
  },
  "userdoc": {
    "methods": {}
  }
}